:100000000C9446000C945D000C945D000C945D0013
:100010000C945D000C945D000C945D000C945D00EC
:100020000C945D000C945D000C945D000C945D00DC
:100030000C945D000C945D000C945D000C945D00CC
:100040000C945D000C945D000C945D000C945D00BC
:100050000C945D000C945D000C945D000C945D00AC
:100060000C945D000C945D000C945D000C945D009C
:100070000C945D000C945D000C945D000C945D008C
:100080000C945D000C945D000C945D0011241FBE67
:10009000CFEFD0E4DEBFCDBF11E0A0E0B1E0ECE0F7
:1000A000F2E000E00BBF02C007900D92A035B1074F
:1000B000D9F70E94DD000C9404010C94000040E08C
:1000C00050E00CC000002F5F3F4F02C020E030E046
:1000D000273063E03607B4F34F5F5F4F4817590787
:1000E000ACF308955E9888B95F9A00005F9882E04B
:1000F00090E00E945F00089581E00E9472000895E0
:10010000813120F481580E947200089581550E9427
:100110007200089584E690E00E945F0088E30E94E8
:10012000720086E00E9472008FE00E94720081E0FF
:100130000E9472008AE090E00E945F0008955E9A3B
:1001400088B95F9A00005F9881E090E00E945F00AC
:100150000895EF92FF920F931F93CF93DF93182F81
:10016000EB010E947C000EC001E0010F812F0E9474
:1001700080007E018FEFE81AF80A88810E949F00B4
:10018000102FE70188818111EFCFDF91CF911F916F
:100190000F91FF90EF900895CF93C82F8A3019F4F4
:1001A0008DE00E94CC009091C00095FFFCCFC093E1
:1001B000C60080E090E0CF91089511B88FEF82B92A
:1001C00087B918B88AB91BB80E948A00009906C07E
:1001D00062E471E081E00E94A900F8CF019906C0B5
:1001E00064E471E081E00E94A900F0CF029906C0AA
:1001F00066E471E081E00E94A900E8CF68E471E064
:0C02000081E00E94A900E2CFF894FFCF3B
:10020C006162636465666768696A6B6C6D6E6F705A
:10021C007172737475767778797A414243444546A6
:10022C004748494A4B4C4D4E4F50515253545556DA
:10023C005758595A0000000200000000CC00000082
:10024C00000041004200430077616974696E6700E9
:00000001FF
