:100000000C944E000C946D000C946D000C946D00DB
:100010000C946D000C946D000C946D000C946D00AC
:100020000C946D000C946D000C946D000C946D009C
:100030000C946D000C944F020C946D000C946D00A8
:100040000C946D000C946D000C946D000C946D007C
:100050000C946D000C946D000C946D000C946D006C
:100060000C946D000C946D000C946D000C946D005C
:100070000C946D000C946D000C946D000C946D004C
:100080000C946D000C946D000C946D00B001C401D3
:10009000D801EC010F02F90102020B0211241FBE6C
:1000A000CFEFD0E4DEBFCDBF11E0A0E0B1E0ECEDDA
:1000B000F6E000E00BBF02C007900D92A035B1073B
:1000C000D9F711E0A0E5B1E001C01D92A637B10754
:1000D000E1F70E949E020C946C030C94000040E037
:1000E00050E00CC000002F5F3F4F02C020E030E026
:1000F000273063E03607B4F34F5F5F4F4817590767
:10010000ACF308955E9888B95F9A00005F9882E02A
:1001100090E00E946F00089581E00E94820008959F
:10012000813120F481580E948200089581550E94F7
:100130008200089584E690E00E946F0088E30E94A8
:10014000820086E00E9482008FE00E94820081E0AF
:100150000E9482008AE090E00E946F0008955E9AFB
:1001600088B95F9A00005F9881E090E00E946F007C
:100170000895EF92FF920F931F93CF93DF93182F61
:10018000EB010E948C000EC001E0010F812F0E9444
:1001900090007E018FEFE81AF80A88810E94AF0074
:1001A000102FE70188818111EFCFDF91CF911F914F
:1001B0000F91FF90EF9008950F931F93CF93883086
:1001C00090F48B01880F880F880F805C0E9482005A
:1001D000C0E007C0F801EC0FF11D80810E94AF0064
:1001E000CF5FC830B8F3CF911F910F910895CF938F
:1001F000C82F8A3019F48DE00E94F7009091C0005A
:1002000095FFFCCFC093C60080E090E0CF910895A9
:10021000CF93DF93EC018530910509F454C01CF4B1
:10022000009751F082C08730910509F451C08830A1
:10023000910509F46AC079C0009906C0019B04C009
:10024000029B02C0039974C0009B06C0019904C0C0
:10025000029B02C003996FC0009B06C0019B04C0B3
:10026000029902C003996AC0009B06C0019904C0AC
:10027000029902C0039965C000990FC001990DC091
:10028000029B0BC0039B09C066E571E086E691E026
:100290000E943D03C7E0D0E059C0009B06C0019B0F
:1002A00004C0029B02C0039B4FC000994FC0019B3A
:1002B0004DC0029B4BC0039949C081E00E94900051
:1002C000C8E0D0E043C0039B41C0C6E0D0E03EC0E0
:1002D000009907C0019908C0029908C0C0E0D0E0A9
:1002E00005C0C0E0D0E002C0C0E0D0E0209771F5CA
:1002F00080E1E6E5F1E0DF011D928A95E9F766E627
:1003000071E0CF010E943D0321C0009905C0039B0D
:1003100005C0C0E0D0E002C0C0E0D0E02097B1F45A
:10032000809100010E94900011C0C0E0D0E00EC09A
:10033000C3E0D0E00BC0C2E0D0E008C0C1E0D0E034
:1003400005C0C4E0D0E002C0C5E0D0E0FE013197B6
:10035000E830F10508F063C0EA5BFF4F0C9434030A
:1003600080915001833318F48F5F80935001E091A6
:100370000001F0E0A0915001B0E0AF5FBE4F8C9162
:10038000EB5AFE4F80834BC080915001882319F0B7
:10039000815080935001E0910001F0E0A091500164
:1003A000B0E0AF5FBE4F8C91EB5AFE4F808337C0F9
:1003B00080910001282F30E0E0915001F0E0EF5FE4
:1003C000FE4F9081F901EB5AFE4F9083803138F552
:1003D0008F5F8093000123C080E1E6E5F1E0DF015B
:1003E0001D928A95E9F71092500181E080930001F7
:1003F00016C040E150E06CE070E086E591E00E94BC
:1004000054030DC040E150E06CE070E086E591E0FF
:100410000E94440304C080E090E00E94AF00CE013F
:10042000DF91CF91089560934B0170934C018093BD
:100430004D0190934E01609351017093520180934E
:1004400053019093540108958BE0809381008DE7D0
:1004500090E0909389008093880082E080936F0001
:10046000109285001092840080914B0190914C0174
:10047000A0914D01B0914E01809351019093520192
:10048000A0935301B09354018FB780688FBF089534
:1004900010928100089581E08093550108951F9284
:1004A0000F920FB60F9211240BB60F922F933F931A
:1004B0004F935F936F937F938F939F93AF93BF936C
:1004C000EF93FF938091510190915201A0915301BC
:1004D000B09154010197A109B10980935101909302
:1004E0005201A0935301B0935401892B8A2B8B2B7B
:1004F00091F40E944B0280914B0190914C01A0918C
:100500004D01B0914E018093510190935201A093FF
:100510005301B0935401FF91EF91BF91AF919F911F
:100520008F917F916F915F914F913F912F910F909C
:100530000BBE0F900FBE0F901F901895CF93DF93B7
:10054000CDB7DEB72E970FB6F894DEBF0FBECDBF86
:1005500011B88FEF82B987B918B88AB91BB81A8257
:10056000198284E690E0A0E0B0E08B839C83AD83A9
:10057000BE838F839887A987BA8788E091E09C879C
:100580008B87CE0101969E878D870E94240264E6A8
:1005900070E080E090E00E9413020E949A00809137
:1005A00001018093560165E371E080E00E94DC0068
:1005B00010E037C0E12FF0E0EE0FFF1FEC0FFD1F42
:1005C000E584F684D70116964D915D916D917C91ED
:1005D000199712968D919D910D90BC91A02D481761
:1005E00059076A077B0779F4D7011A96ED91FC91B8
:1005F0001B978D919C910995F701918380831682B9
:10060000178210861186F70186819781A085B185B2
:100610008C599F4FAF4FBF4F86839783A087B18779
:100620001F5F112339F289819A81089729F066E5C5
:1006300071E081E00E94B900009B0FC0019B0DC0DA
:10064000809100010E949000E0915001F0E0EF5F86
:10065000FE4F808190E00E94AF0080915501882379
:10066000E1F310925501A4CFEE0FFF1F0024001CF0
:100670000BBE0790F691E02D0994FB01DC0101907F
:100680000D920020E1F70895DC01CB01FC01F999FE
:10069000FECF06C0F2BDE1BDF89A319600B40D92CE
:1006A00041505040B8F70895DC01CB0103C02D91B3
:1006B0000E945F0341505040D0F70895262FF999CA
:1006C000FECF1FBA92BD81BD20BD0FB6F894FA9A35
:0C06D000F99A0FBE01960895F894FFCF30
:1006DC00016162636465666768696A6B6C6D6E6FF5
:1006EC00707172737475767778797A4142434445A8
:1006FC00464748494A4B4C4D4E4F50515253545516
:10070C00565758595A1C161D011D161C0000000086
:10071C000200000000F700000000000100000000D3
:00000001FF
