:100000000C944E010C946D010C946D010C946D01D7
:100010000C946D010C946D010C946D010C946D01A8
:100020000C946D010C946D010C946D010C946D0198
:100030000C946D010C949F030C946D010C946D0154
:100040000C946D010C946D010C946D010C946D0178
:100050000C946D010C946D010C946D010C946D0168
:100060000C946D010C946D010C946D010C946D0158
:100070000C946D010C946D010C946D010C946D0148
:100080000C946D010C946D010C946D01F00403054A
:100090000B051905340539053E052F05ED042A0524
:1000A000ED04430560057805A205A805D605E4051D
:1000B000F205FF05AB05FF05B405BD050000000016
:1000C0000000005F00000007000700147F147F1489
:1000D000242A7F2A122313086462364955225000CD
:1000E00005030000001C2241000041221C001408EE
:1000F0003E081408083E08080050300000080808B0
:100100000808006060000020100804023E514945C4
:100110003E00427F400042615149462141454B31FA
:100120001814127F1027454545393C4A494930018A
:10013000710905033649494936064949291E0036E1
:100140003600000056360000081422410014141432
:100150001414004122140802015109063249794160
:100160003E7E1111117E7F494949363E414141226F
:100170007F4141221C7F494949417F090909013ECC
:100180004149497A7F0808087F00417F41002040AB
:10019000413F017F081422417F404040407F020CD4
:1001A000027F7F0408107F3E4141413E7F090909DB
:1001B000063E4151215E7F09192946464949493188
:1001C00001017F01013F4040403F1F2040201F3F71
:1001D0004038403F631408146307087008076151F2
:1001E000494543007F41410002040810200041417D
:1001F0007F0004020102044040404040000102042C
:100200000020545454787F484444383844444420AF
:10021000384444487F3854545418087E0901020C6D
:100220005252523E7F0804047800447D4000204032
:10023000443D007F1028440000417F40007C0418AA
:1002400004787C0804047838444444387C1414143A
:1002500008081414187C7C080404084854545420DA
:10026000043F4440203C4040207C1C2040201C3C5B
:100270004030403C44281028440C5050503C4464CA
:10028000544C44000836410000007F000000413615
:1002900008001008081008000000000011241FBE0C
:1002A000CFEFD0E4DEBFCDBF12E0A0E0B1E0E0E3ED
:1002B000FDE000E00BBF02C007900D92AA3AB10723
:1002C000D9F714E0AAEAB2E001C01D92A73BB1073A
:1002D000E1F70E9403060C9496060C94000040E09F
:1002E00050E00CC000002F5F3F4F02C020E030E024
:1002F000273063E03607B4F34F5F5F4F4817590765
:10030000ACF308955E9888B95F9A00005F9882E028
:1003100090E00E946F01089581E00E94820108959B
:10032000813120F481580E948201089581550E94F4
:100330008201089584E690E00E946F0188E30E94A4
:10034000820186E00E9482018FE00E94820181E0AA
:100350000E9482018AE090E00E946F0108955E9AF7
:1003600088B95F9A00005F9881E090E00E946F0179
:100370000895EF92FF920F931F93CF93DF93182F5F
:10038000EB010E948C010EC001E0010F812F0E9441
:1003900090017E018FEFE81AF80A88810E94AF0170
:1003A000102FE70188818111EFCFDF91CF911F914D
:1003B0000F91FF90EF9008950F931F93CF93883084
:1003C00090F48B01880F880F880F805C0E94820157
:1003D000C0E007C0F801EC0FF11D80810E94AF0161
:1003E000CF5FC830B8F3CF911F910F91089529982E
:1003F000662319F02B9A90E015C02B98FCCF47E0AC
:1004000050E0491B5109282F30E002C0359527954F
:100410004A95E2F720FF02C02C9A01C02C982D9A31
:100420002D989F5F983058F3299A089560E00E94B4
:10043000F701089561E00E94F7010895CF93DF93DB
:10044000219A229A239A249A259A2A9A299A83EC05
:1004500099E00197F1F700C000002A988BE594E439
:100460000197F1F700C000002A9A299881E20E94C2
:10047000160283E10E94160286E00E94160282ECB8
:100480000E94160280E20E94160289E00E94160273
:1004900080E80E94160280E40E941602C0E0D0E0CC
:1004A00004C080E00E941A022196C83F91E0D9075B
:1004B000C0F388E00E9416028CE00E941602DF91D1
:1004C000CF91089580E80E94160280E40E941602EF
:1004D0001092A2041092A30480E090E005C0FC01F9
:1004E000E655FD4F10820196883F21E09207B8F350
:1004F0000895882311F080E201C084E20E94160270
:100500000895262F26952695269590E034E5239F7D
:10051000800D911D1124442379F0677021E030E0B3
:1005200002C0220F331F6A95E2F7FC01E655FD4F2A
:100530008081282B20830895677021E030E002C07D
:10054000220F331F6A95E2F7FC01E655FD4F209517
:100550008081282320830895EF92FF920F931F93A9
:10056000CF93DF93E82EF62E00E047C02E2D3327E1
:1005700027FD309520523109802F6F2D0E94810672
:10058000F901EE0FFF1FEE0FFF1FE20FF31FE80F41
:10059000F11DE454FF4FE491812F0E948106F0E0A9
:1005A00002C0F595E7958A95E2F7E0FF0AC06091F1
:1005B000A3048091A204610F41E0800F0E94810298
:1005C00009C06091A3048091A204610F40E0800FF4
:1005D0000E9481021F5F01C010E0212F30E0CE0198
:1005E000880F991F880F991F880F991F8C1B9D0BCF
:1005F000281739070CF4BACF0F5F202F30E0CF2D2A
:10060000D0E0CE01880F991F880F991F8C0F9D1F76
:10061000281739070CF3E2EAF4E08F2D880F880FD2
:100620008F0D9081890F8F5F8083843570F01092D9
:10063000A204E3EAF4E08F2D880F880F880F982F2B
:100640009F198081890F8F5F80838091A3048033FD
:1006500020F01092A2041092A304DF91CF911F9179
:100660000F91FF90EF9008951F93CF93DF93EC01CC
:10067000162F04C02196612F0E94AC02888181113F
:10068000F9CFDF91CF911F9108958093A2046093D9
:10069000A3040895CF93DF9380E80E94160280E4BC
:1006A0000E941602C0E0D0E007C0FE01E655FD4FF3
:1006B00080810E941A022196C83F81E0D807A8F3E2
:1006C000DF91CF9108956093390170933A0180933F
:1006D0003B0190933C016093A7047093A80480931E
:1006E000A9049093AA0408958BE0809381008DE77C
:1006F00090E0909389008093880082E080936F005F
:1007000010928500109284008091390190913A01F5
:10071000A0913B01B0913C018093A7049093A80461
:10072000A093A904B093AA048FB780688FBF0895DF
:1007300010928100089581E08093AB0408951F9288
:100740000F920FB60F9211240BB60F922F933F9377
:100750004F935F936F937F938F939F93AF93BF93C9
:10076000EF93FF938091A7049091A804A091A9040E
:10077000B091AA040197A109B1098093A7049093AD
:10078000A804A093A904B093AA04892B8A2B8B2BCD
:1007900091F40E949B038091390190913A01A091BC
:1007A0003B01B0913C018093A7049093A804A093CF
:1007B000A904B093AA04FF91EF91BF91AF919F91CB
:1007C0008F917F916F915F914F913F912F910F90FA
:1007D0000BBE0F900FBE0F901F901895FF920F93B6
:1007E0001F93CF93DF93CDB7DEB7C658D1090FB6AD
:1007F000F894DEBF0FBECDBFF82E86E8EDE3F1E042
:10080000DE01119601900D928A95E1F70E94620235
:1008100010E005E121C0FE01E10FF11D9181943648
:1008200019F40F5F1F5F18C0953619F40C5F1F5F36
:1008300013C091E0163808F490E0812F2AE7929FC8
:10084000800D1124FE01E80FF11D61816F19402F09
:10085000802F0E9481021F5F0334E8F20E944A0346
:10086000CA57DF4F0FB6F894DEBF0FBECDBFDF9182
:10087000CF911F910F91FF9008950F931F93CF93E6
:10088000DF93CDB7DEB7C658D1090FB6F894DEBFF7
:100890000FBECDBF86E8E3ECF1E0DE0111960190DA
:1008A0000D928A95E1F70E94620210E005E120C0F6
:1008B000FE01E10FF11D8181843619F40F5F1F5F86
:1008C00017C0853619F40C5F1F5F12C081E016381F
:1008D00008F480E0912F2AE7829F900D1124FE01F9
:1008E000E90FF11D402F6181802F0E9481021F5F5F
:1008F0000334F0F20E944A03CA57DF4F0FB6F89450
:10090000DEBF0FBECDBFDF91CF911F910F91089534
:10091000CF93C82F0E94620260E08FE10E944503DE
:1009200061E089E492E00E9434036AE08FE00E9473
:10093000450361E08EE492E00E94340364E18FE0BD
:100940000E94450361E087E592E00E9434036EE176
:100950008FE00E94450361E080E692E00E9434034C
:1009600068E28FE00E94450361E08AE692E00E941F
:1009700034036C2F80E00E94450361E084E792E03D
:100980000E9434030E944A03CF9108950E9462029C
:1009900060E080E00E94450361E086E792E00E940B
:1009A00034036AE08091A5040E944503E091A60407
:1009B000F0E0EB5FFE4F61E080810E94AC020E949C
:1009C0004A030895CF93DF93EC018C30910528F40E
:1009D000FC01EA5BFF4F0C948D06C0E0D0E067C0DD
:1009E000029965C0809100018A3009F44FC08431BA
:1009F00009F44FC08E3109F44FC0883209F057C056
:100A0000C6E0D0E054C08091AC048B3009F04FC0F8
:100A1000C2E0D0E04CC08091AC04843111F4C0E05D
:100A2000D0E0209709F043C00E9462021092AC040B
:100A30003EC0009B34C0019B35C0029B36C0039969
:100A400036C01092A6041092A5041092A404C0E02F
:100A5000D0E02DC0009B2BC0CAE0D0E028C0019B95
:100A600026C0C8E0D0E023C0039921C0C0E0D0E098
:100A70001EC003991CC0C0E0D0E019C0039917C084
:100A8000C0E0D0E014C0C3E0D0E011C0C3E0D0E0CB
:100A90000EC0C4E0D0E00BC0C5E0D0E008C0C9E0A3
:100AA000D0E005C0C7E0D0E002C0CBE0D0E0CC3061
:100AB000D10508F0A4C0FE01EE5AFF4F0C948D063C
:100AC000009908C0809100018B3068F08A508093B3
:100AD000000109C0019907C080910001883218F413
:100AE000865F80930001809100010E94880487C086
:100AF0008091AC04853050F080FD04C080E00E94FD
:100B0000EE030CC084E00E94EE0308C080FD04C028
:100B100080E00E94EE0302C00E943D048091AC047C
:100B20008F5F8093AC048B3009F069C068E28CE081
:100B30000E94450361E083E892E00E9434030E9432
:100B40004A035DC08091AC048F5F8093AC0457C0B2
:100B50000E94C60454C08091A604833308F04FC09D
:100B60008F5F8093A6044BC08091A604882309F46C
:100B700046C081508093A60442C08091A404282FCF
:100B800030E0E091A604F0E0EB5FFE4F9081F901C8
:100B9000E355FB4F90838A3018F48F5F8093A40451
:100BA0008091A5048F5F8093A50429C00E946202F2
:100BB0006AE08AE00E94450361E08FE892E00E94CB
:100BC00034030E944A031BC00E9462026AE08AE06A
:100BD0000E94450361E087E992E00E9434030E948D
:100BE0004A030DC00E9462026AE08AE00E94450347
:100BF00061E080EA92E00E9434030E944A03CE0141
:100C0000DF91CF910895CF93DF93CDB7DEB72E97C5
:100C10000FB6F894DEBF0FBECDBF8FEF84B915B805
:100C200011B882B91A82198288EC90E0A0E0B0E095
:100C30008B839C83AD83BE838F839887A987BA8774
:100C400082EE94E09C878B87CE0101969E878D87EC
:100C50000E941E020E9474036091010170910201C2
:100C600080910301909104010E946303F12C3FC025
:100C7000EF2DF0E0EE0FFF1FEC0FFD1F0585168531
:100C8000D80116964D915D916D917C9119971296B0
:100C90008D919D910D90BC91A02D481759076A0721
:100CA0007B0778F0D8011A96ED91FC911B978D91F6
:100CB0009C910995F8019183808316821782108692
:100CC0001186F80146815781608571858091010107
:100CD00090910201A0910301B0910401840F951F2E
:100CE000A61FB71F86839783A087B187F394FF2041
:100CF00009F4BECF8091AB048823E1F31092AB04DA
:100D0000B5CF991B79E004C0991F961708F0961B80
:100D1000881F7A95C9F780950895EE0FFF1F00246C
:100D2000001C0BBE0790F691E02D0994F894FFCFBC
:100D30000A640000006162636465666768696A6BE3
:100D40006C6D6E6F707172737475767778797A41A5
:100D500042434445464748494A4B4C4D4E4F5051FB
:100D600052535455565758595A01000000141E64E6
:100D7000131E64121E64111E64101E640F1E640E86
:100D80001E640D1E640C1E640B1E640A1E640B1E82
:100D9000641E0C640D1E640E1E640F1E64101E641F
:100DA000111E64121E64131E64141E641E641E64ED
:100DB0001E641E64141E64131E64121E64111E64DD
:100DC000101E640F1E640E1E640D1E640C1E640B48
:100DD0001E640A1E640B1E641E0C640D1E640E1E2F
:100DE000640F1E64101E64111E64121E64131E64C0
:100DF000141E64141E64141E64141E64141E6414F1
:100E00001E64141E64141E64141E64141E64141ED6
:100E100064141E64141E641E1464141E64141E6480
:100E2000141E64141E64141E64141E64141E6414C0
:100E30001E641E641E641E641E64141E64141E64FC
:100E4000141E64141E64141E64141E64141E6414A0
:100E50001E64141E64141E64141E64141E641E1486
:100E600064141E64141E64141E64141E64141E6430
:100E7000141E64141E64141E644D656E7500416476
:100E80006420557365720044656C2055736572006B
:100E90004175746820557365720041757468204D02
:100EA0006F6465002A00496E707574204E616D652F
:100EB0003A200042696F5365637572697479004422
:100EC000454C5553455200415554485553455200E1
:0A0ED000415554484D4F44450000C1
:00000001FF
